:100000000C9434000C9451000C9451000C94510049
:100010000C9451000C9451000C9451000C9451001C
:100020000C9451000C9451000C9451000C9451000C
:100030000C9451000C9451000C9451000C945100FC
:100040000C9451000C9451000C9451000C945100EC
:100050000C9451000C9451000C9451000C945100DC
:100060000C9451000C94510011241FBECFEFD8E026
:10007000DEBFCDBF11E0A0E0B1E0EAE9F2E002C0EE
:1000800005900D92A031B107D9F711E0A0E1B1E0E0
:1000900001C01D92A037B107E1F70E94E1000C9466
:1000A0004B010C940000CF93DF93FA0120E030E085
:1000B0001EC0DC01A20FB31FCC91CA3328F0C0626E
:1000C000D0E0C755D10902C0D0E0E0971196AC91BD
:1000D000AA3328F0A062B0E0A755B10902C0B0E091
:1000E000D097C295C07FCA2BC1932E5F3F4F261772
:1000F0003707F8F2CA01DF91CF9108951F93CF938C
:10010000DF93FC01DA0111969B0180E090E016C0BC
:10011000BF01C191C295CF70D0E0C050DF4F1881B0
:10012000ED0121971883EB0168816F70C62FD0E035
:10013000C050DF4F68816C93019612968217930727
:1001400039F7FC01EE0FFF1FE40FF51F1082DF915E
:10015000CF911F91089588E18093C1008BE0809337
:10016000C4000895CF93DF9300D0CDB7DEB77A8374
:10017000698320E030E00CC04091C00047FF06C01A
:100180002091C600FC01208380E008C02F5F3F4F14
:1001900049815A812417350779F781E00F900F9034
:1001A000DF91CF9108958091C00087FFFCCF8091AF
:1001B000C60008959091C00095FFFCCF8093C600C3
:1001C00008950E94AB00389A10E003C011E001C00E
:1001D00012E0C0E0D0E001C010E00E94D3008837F8
:1001E00099F38B3699F3803799F3113089F4FE0136
:1001F000E05EFE4F8A3019F08D3009F049C0108260
:1002000040E151E0BE0180E291E00E945300E4CF62
:10021000123019F78A3011F08D3099F5FE01E05E49
:10022000FE4F108240E651E0BE0180E291E00E9464
:100230005300409AE0E6F1E003C080818F5F819334
:10024000CF01805691408C179D07BCF3409840E247
:1002500051E060E170E080E691E00E947E0082E77C
:100260000E94DA0000E211E0F80181918F010E9402
:10027000DA00F1E000341F07B9F78AE00E94DA00E3
:10028000ABCFC034D1050CF0A7CFFE01E05EFE4F2E
:0A02900080832196A2CFF894FFCFDF
:10029A0030313233343536373839414243444546B2
:00000001FF
